{
  "contractName": "rpds_kiosk",
  "abi": [
    {
      "constant": true,
      "inputs": [
        {
          "internalType": "uint256",
          "name": "",
          "type": "uint256"
        }
      ],
      "name": "people",
      "outputs": [
        {
          "internalType": "uint256",
          "name": "_aadhar",
          "type": "uint256"
        },
        {
          "internalType": "string",
          "name": "_name",
          "type": "string"
        },
        {
          "internalType": "uint256",
          "name": "_rice",
          "type": "uint256"
        },
        {
          "internalType": "uint256",
          "name": "_sugar",
          "type": "uint256"
        },
        {
          "internalType": "uint256",
          "name": "_wheat",
          "type": "uint256"
        },
        {
          "internalType": "uint256",
          "name": "_kerosene",
          "type": "uint256"
        }
      ],
      "payable": false,
      "stateMutability": "view",
      "type": "function"
    },
    {
      "constant": true,
      "inputs": [],
      "name": "peopleCount",
      "outputs": [
        {
          "internalType": "uint256",
          "name": "",
          "type": "uint256"
        }
      ],
      "payable": false,
      "stateMutability": "view",
      "type": "function"
    },
    {
      "constant": false,
      "inputs": [
        {
          "internalType": "uint256",
          "name": "_aadhar",
          "type": "uint256"
        },
        {
          "internalType": "string",
          "name": "_name",
          "type": "string"
        },
        {
          "internalType": "uint256",
          "name": "_rice",
          "type": "uint256"
        },
        {
          "internalType": "uint256",
          "name": "_sugar",
          "type": "uint256"
        },
        {
          "internalType": "uint256",
          "name": "_wheat",
          "type": "uint256"
        },
        {
          "internalType": "uint256",
          "name": "_kerosene",
          "type": "uint256"
        }
      ],
      "name": "addPerson",
      "outputs": [],
      "payable": false,
      "stateMutability": "nonpayable",
      "type": "function"
    },
    {
      "constant": true,
      "inputs": [
        {
          "internalType": "uint256",
          "name": "_aadhar",
          "type": "uint256"
        }
      ],
      "name": "findPerson",
      "outputs": [
        {
          "internalType": "uint256",
          "name": "",
          "type": "uint256"
        },
        {
          "internalType": "string",
          "name": "",
          "type": "string"
        },
        {
          "internalType": "uint256",
          "name": "",
          "type": "uint256"
        },
        {
          "internalType": "uint256",
          "name": "",
          "type": "uint256"
        },
        {
          "internalType": "uint256",
          "name": "",
          "type": "uint256"
        },
        {
          "internalType": "uint256",
          "name": "",
          "type": "uint256"
        }
      ],
      "payable": false,
      "stateMutability": "view",
      "type": "function"
    },
    {
      "constant": false,
      "inputs": [
        {
          "internalType": "uint256",
          "name": "_aadhar",
          "type": "uint256"
        },
        {
          "internalType": "uint256",
          "name": "_rice",
          "type": "uint256"
        }
      ],
      "name": "transactRice",
      "outputs": [],
      "payable": false,
      "stateMutability": "nonpayable",
      "type": "function"
    },
    {
      "constant": false,
      "inputs": [
        {
          "internalType": "uint256",
          "name": "_aadhar",
          "type": "uint256"
        },
        {
          "internalType": "uint256",
          "name": "_sugar",
          "type": "uint256"
        }
      ],
      "name": "transactSugar",
      "outputs": [],
      "payable": false,
      "stateMutability": "nonpayable",
      "type": "function"
    },
    {
      "constant": false,
      "inputs": [
        {
          "internalType": "uint256",
          "name": "_aadhar",
          "type": "uint256"
        },
        {
          "internalType": "uint256",
          "name": "_wheat",
          "type": "uint256"
        }
      ],
      "name": "transactWheat",
      "outputs": [],
      "payable": false,
      "stateMutability": "nonpayable",
      "type": "function"
    },
    {
      "constant": false,
      "inputs": [
        {
          "internalType": "uint256",
          "name": "_aadhar",
          "type": "uint256"
        },
        {
          "internalType": "uint256",
          "name": "_kerosene",
          "type": "uint256"
        }
      ],
      "name": "transactKerosene",
      "outputs": [],
      "payable": false,
      "stateMutability": "nonpayable",
      "type": "function"
    }
  ],
  "bytecode": "0x608060405234801561001057600080fd5b50610a24806100206000396000f3fe608060405234801561001057600080fd5b50600436106100885760003560e01c80637e9199c41161005b5780637e9199c4146102085780639e7a13ad14610240578063e84a71541461030a578063f6af867c1461034257610088565b8063267c68e01461008d57806328e139fa146100ab578063615baa95146100e357806362cc2fa61461011b575b600080fd5b61009561040c565b6040518082815260200191505060405180910390f35b6100e1600480360360408110156100c157600080fd5b810190808035906020019092919080359060200190929190505050610412565b005b610119600480360360408110156100f957600080fd5b810190808035906020019092919080359060200190929190505050610487565b005b610206600480360360c081101561013157600080fd5b81019080803590602001909291908035906020019064010000000081111561015857600080fd5b82018360208201111561016a57600080fd5b8035906020019184600183028401116401000000008311171561018c57600080fd5b91908080601f016020809104026020016040519081016040528093929190818152602001838380828437600081840152601f19601f820116905080830192505050505050509192919290803590602001909291908035906020019092919080359060200190929190803590602001909291905050506104fc565b005b61023e6004803603604081101561021e57600080fd5b8101908080359060200190929190803590602001909291905050506105c0565b005b61026c6004803603602081101561025657600080fd5b8101908080359060200190929190505050610635565b6040518087815260200180602001868152602001858152602001848152602001838152602001828103825287818151815260200191508051906020019080838360005b838110156102ca5780820151818401526020810190506102af565b50505050905090810190601f1680156102f75780820380516001836020036101000a031916815260200191505b5097505050505050505060405180910390f35b6103406004803603604081101561032057600080fd5b810190808035906020019092919080359060200190929190505050610716565b005b61036e6004803603602081101561035857600080fd5b810190808035906020019092919050505061078b565b6040518087815260200180602001868152602001858152602001848152602001838152602001828103825287818151815260200191508051906020019080838360005b838110156103cc5780820151818401526020810190506103b1565b50505050905090810190601f1680156103f95780820380516001836020036101000a031916815260200191505b5097505050505050505060405180910390f35b60015481565b60008090505b60015481101561048257826000828154811061043057fe5b906000526020600020906006020160000154141561047557816000828154811061045657fe5b9060005260206000209060060201600301600082825403925050819055505b8080600101915050610418565b505050565b60008090505b6001548110156104f75782600082815481106104a557fe5b90600052602060002090600602016000015414156104ea5781600082815481106104cb57fe5b9060005260206000209060060201600401600082825403925050819055505b808060010191505061048d565b505050565b60006040518060c00160405280888152602001878152602001868152602001858152602001848152602001838152509080600181540180825580915050906001820390600052602060002090600602016000909192909190915060008201518160000155602082015181600101908051906020019061057c92919061094a565b5060408201518160020155606082015181600301556080820151816004015560a0820151816005015550505060018060008282540192505081905550505050505050565b60008090505b6001548110156106305782600082815481106105de57fe5b906000526020600020906006020160000154141561062357816000828154811061060457fe5b9060005260206000209060060201600501600082825403925050819055505b80806001019150506105c6565b505050565b6000818154811061064257fe5b9060005260206000209060060201600091509050806000015490806001018054600181600116156101000203166002900480601f0160208091040260200160405190810160405280929190818152602001828054600181600116156101000203166002900480156106f45780601f106106c9576101008083540402835291602001916106f4565b820191906000526020600020905b8154815290600101906020018083116106d757829003601f168201915b5050505050908060020154908060030154908060040154908060050154905086565b60008090505b60015481101561078657826000828154811061073457fe5b906000526020600020906006020160000154141561077957816000828154811061075a57fe5b9060005260206000209060060201600201600082825403925050819055505b808060010191505061071c565b505050565b6000606060008060008060008090505b60015481101561093f5787600082815481106107b357fe5b906000526020600020906006020160000154141561093257600081815481106107d857fe5b906000526020600020906006020160000154600082815481106107f757fe5b90600052602060002090600602016001016000838154811061081557fe5b9060005260206000209060060201600201546000848154811061083457fe5b9060005260206000209060060201600301546000858154811061085357fe5b9060005260206000209060060201600401546000868154811061087257fe5b906000526020600020906006020160050154848054600181600116156101000203166002900480601f0160208091040260200160405190810160405280929190818152602001828054600181600116156101000203166002900480156109195780601f106108ee57610100808354040283529160200191610919565b820191906000526020600020905b8154815290600101906020018083116108fc57829003601f168201915b5050505050945096509650965096509650965050610941565b808060010191505061079b565b505b91939550919395565b828054600181600116156101000203166002900490600052602060002090601f016020900481019282601f1061098b57805160ff19168380011785556109b9565b828001600101855582156109b9579182015b828111156109b857825182559160200191906001019061099d565b5b5090506109c691906109ca565b5090565b6109ec91905b808211156109e85760008160009055506001016109d0565b5090565b9056fea265627a7a72315820041a78a6450a71583dfaa2ce7130fb1f2def29a73b13dff6f738868f50d369d664736f6c63430005100032",
  "source": "pragma solidity >=0.5.1;\n\ncontract rpds_kiosk {\n    Person[] public people;\n\n    uint256 public peopleCount;\n    uint _index;\n\n    struct Person {\n        uint _aadhar;\n        string _name;\n        uint _rice;\n        uint _sugar;\n        uint _wheat;\n        uint _kerosene;\n    }\n\n    function addPerson(uint _aadhar, string memory _name, uint _rice, uint _sugar, uint _wheat, uint _kerosene) public {\n        people.push(Person(_aadhar, _name, _rice, _sugar, _wheat, _kerosene));\n        peopleCount += 1;\n    }\n\n    function findPerson(uint _aadhar) public view returns (uint, string memory, uint, uint, uint, uint) {\n        for (uint temp=0; temp<peopleCount; temp++) {\n            if (people[temp]._aadhar == _aadhar){\n            return (people[temp]._aadhar,\n                    people[temp]._name,\n                    people[temp]._rice,\n                    people[temp]._sugar,\n                    people[temp]._wheat,\n                    people[temp]._kerosene);\n            }\n        }\n    }\n\n    function transactRice(uint _aadhar, uint _rice) public {\n        for (uint temp=0; temp<peopleCount; temp++) {\n            if (people[temp]._aadhar == _aadhar){\n                people[temp]._rice -= _rice;\n            }\n        }\n    }\n\n    function transactSugar(uint _aadhar, uint _sugar) public {\n        for (uint temp=0; temp<peopleCount; temp++) {\n            if (people[temp]._aadhar == _aadhar){\n                people[temp]._sugar -= _sugar;\n            }\n        }\n    }\n\n    function transactWheat(uint _aadhar, uint _wheat) public {\n        for (uint temp=0; temp<peopleCount; temp++) {\n            if (people[temp]._aadhar == _aadhar){\n                people[temp]._wheat -= _wheat;\n            }\n        }\n    }\n\n    function transactKerosene(uint _aadhar, uint _kerosene) public {\n        for (uint temp=0; temp<peopleCount; temp++) {\n            if (people[temp]._aadhar == _aadhar){\n                people[temp]._kerosene -= _kerosene;\n            }\n        }\n    }\n\n}\n",
  "sourcePath": "/root/rpds-mern/blockchain/sc/contracts/rpds.sol",
  "compiler": {
    "name": "solc",
    "version": "0.5.16+commit.9c3226ce.Emscripten.clang"
  },
  "schemaVersion": "3.2.0",
  "updatedAt": "2020-05-27T21:02:06.512Z",
  "networkType": "ethereum",
  "devdoc": {
    "methods": {}
  },
  "userdoc": {
    "methods": {}
  }
}